:0400000002001132B7
:03000B0002012CC3
:03006A0002000E83
:03000E0002006D80
:20006D0075415575425075B10075B204C2B2753B00753D00C20412019BE4F53FF540E53F55
:20008D002441F9E7FF600F8F8212018F053FE4B53FEC054080E810030302011985223CE53E
:2000AD003B24FC5003020119E53B75F003A49000BF730200CB0200D40200E20200F974A0E5
:2000CD00B53C49053B80457401B53C04053B803C753B0080377401B53C028004E53C700783
:2000ED00053B853C3D8025753B00802074A2B53C0B7401B53D06D2B2D204800D74A1B53C54
:20010D0008E53D7004C2B2D204753B001004030200A3A2B2E433F58212018F0200A322C073
:20012D00E0C0D0300120D52628752603D52809852422C201D2038019E524C313F52430B056
:20014D0010432480800B20B008D201752604752809D52529752503300023E527700AC2B114
:20016D008521237527098015E523C313F523D52708D2B1C200D2028004A2D792B1D0D0D0AC
:20018D00E032AF8210020280FB8F21D20022759850C2AFC2B9C2A9C28C758900758E8075E4
:1C01AD008A80758CFED28CD2A9D2B9D2AFC200C201D202C20375250075260022D3
:06004000E4787FF6D8FD14
:20001E007900E94400601B7A009001CD780175A000E493F2A308B8000205A0D9F4DAF275BA
:02003E00A0FF21
:200046007800E84400600A790175A000E4F309D8FC7800E84400600C7900900001E4F0A3B8
:04006600D8FCD9FAEF
:0D0011007581421201C9E582600302000EF4
:0401C9007582002219
:00000001FF